{
  "address": "0x2c1ac5CBC36Db4eFcBd6C5c4EEcBc1880ca3bE8D",
  "abi": [
    {
      "inputs": [
        {
          "internalType": "uint256",
          "name": "interval",
          "type": "uint256"
        },
        {
          "internalType": "address",
          "name": "priceFeedAddress",
          "type": "address"
        },
        {
          "internalType": "address",
          "name": "vrfCoordinatorAddress",
          "type": "address"
        },
        {
          "internalType": "bytes32",
          "name": "gasLane",
          "type": "bytes32"
        },
        {
          "internalType": "uint64",
          "name": "subscriptionId",
          "type": "uint64"
        },
        {
          "internalType": "uint32",
          "name": "callbackGasLimit",
          "type": "uint32"
        }
      ],
      "stateMutability": "nonpayable",
      "type": "constructor"
    },
    {
      "inputs": [],
      "name": "BullBear__UpkeepNotNeeded",
      "type": "error"
    },
    {
      "inputs": [
        {
          "internalType": "address",
          "name": "have",
          "type": "address"
        },
        {
          "internalType": "address",
          "name": "want",
          "type": "address"
        }
      ],
      "name": "OnlyCoordinatorCanFulfill",
      "type": "error"
    },
    {
      "anonymous": false,
      "inputs": [
        {
          "indexed": true,
          "internalType": "address",
          "name": "owner",
          "type": "address"
        },
        {
          "indexed": true,
          "internalType": "address",
          "name": "approved",
          "type": "address"
        },
        {
          "indexed": true,
          "internalType": "uint256",
          "name": "tokenId",
          "type": "uint256"
        }
      ],
      "name": "Approval",
      "type": "event"
    },
    {
      "anonymous": false,
      "inputs": [
        {
          "indexed": true,
          "internalType": "address",
          "name": "owner",
          "type": "address"
        },
        {
          "indexed": true,
          "internalType": "address",
          "name": "operator",
          "type": "address"
        },
        {
          "indexed": false,
          "internalType": "bool",
          "name": "approved",
          "type": "bool"
        }
      ],
      "name": "ApprovalForAll",
      "type": "event"
    },
    {
      "anonymous": false,
      "inputs": [
        {
          "indexed": true,
          "internalType": "address",
          "name": "previousOwner",
          "type": "address"
        },
        {
          "indexed": true,
          "internalType": "address",
          "name": "newOwner",
          "type": "address"
        }
      ],
      "name": "OwnershipTransferred",
      "type": "event"
    },
    {
      "anonymous": false,
      "inputs": [
        {
          "indexed": false,
          "internalType": "uint256",
          "name": "requestId",
          "type": "uint256"
        }
      ],
      "name": "RandomNFTUriRequested",
      "type": "event"
    },
    {
      "anonymous": false,
      "inputs": [
        {
          "indexed": false,
          "internalType": "uint256",
          "name": "requestId",
          "type": "uint256"
        },
        {
          "indexed": false,
          "internalType": "uint256[]",
          "name": "randomWords",
          "type": "uint256[]"
        }
      ],
      "name": "RequestFulfilled",
      "type": "event"
    },
    {
      "anonymous": false,
      "inputs": [
        {
          "indexed": false,
          "internalType": "string",
          "name": "marketTrend",
          "type": "string"
        }
      ],
      "name": "TokensUpdated",
      "type": "event"
    },
    {
      "anonymous": false,
      "inputs": [
        {
          "indexed": true,
          "internalType": "address",
          "name": "from",
          "type": "address"
        },
        {
          "indexed": true,
          "internalType": "address",
          "name": "to",
          "type": "address"
        },
        {
          "indexed": true,
          "internalType": "uint256",
          "name": "tokenId",
          "type": "uint256"
        }
      ],
      "name": "Transfer",
      "type": "event"
    },
    {
      "inputs": [
        {
          "internalType": "address",
          "name": "to",
          "type": "address"
        },
        {
          "internalType": "uint256",
          "name": "tokenId",
          "type": "uint256"
        }
      ],
      "name": "approve",
      "outputs": [],
      "stateMutability": "nonpayable",
      "type": "function"
    },
    {
      "inputs": [
        {
          "internalType": "address",
          "name": "owner",
          "type": "address"
        }
      ],
      "name": "balanceOf",
      "outputs": [
        {
          "internalType": "uint256",
          "name": "",
          "type": "uint256"
        }
      ],
      "stateMutability": "view",
      "type": "function"
    },
    {
      "inputs": [
        {
          "internalType": "bytes",
          "name": "",
          "type": "bytes"
        }
      ],
      "name": "checkUpkeep",
      "outputs": [
        {
          "internalType": "bool",
          "name": "upkeepNeeded",
          "type": "bool"
        },
        {
          "internalType": "bytes",
          "name": "",
          "type": "bytes"
        }
      ],
      "stateMutability": "view",
      "type": "function"
    },
    {
      "inputs": [],
      "name": "currentMarketTrend",
      "outputs": [
        {
          "internalType": "enum BullBear.MarketTrend",
          "name": "",
          "type": "uint8"
        }
      ],
      "stateMutability": "view",
      "type": "function"
    },
    {
      "inputs": [
        {
          "internalType": "uint256",
          "name": "tokenId",
          "type": "uint256"
        }
      ],
      "name": "getApproved",
      "outputs": [
        {
          "internalType": "address",
          "name": "",
          "type": "address"
        }
      ],
      "stateMutability": "view",
      "type": "function"
    },
    {
      "inputs": [],
      "name": "getInterval",
      "outputs": [
        {
          "internalType": "uint256",
          "name": "",
          "type": "uint256"
        }
      ],
      "stateMutability": "view",
      "type": "function"
    },
    {
      "inputs": [],
      "name": "getLastPrice",
      "outputs": [
        {
          "internalType": "int256",
          "name": "",
          "type": "int256"
        }
      ],
      "stateMutability": "view",
      "type": "function"
    },
    {
      "inputs": [],
      "name": "getPriceFeed",
      "outputs": [
        {
          "internalType": "contract AggregatorV3Interface",
          "name": "",
          "type": "address"
        }
      ],
      "stateMutability": "view",
      "type": "function"
    },
    {
      "inputs": [
        {
          "internalType": "address",
          "name": "owner",
          "type": "address"
        },
        {
          "internalType": "address",
          "name": "operator",
          "type": "address"
        }
      ],
      "name": "isApprovedForAll",
      "outputs": [
        {
          "internalType": "bool",
          "name": "",
          "type": "bool"
        }
      ],
      "stateMutability": "view",
      "type": "function"
    },
    {
      "inputs": [],
      "name": "name",
      "outputs": [
        {
          "internalType": "string",
          "name": "",
          "type": "string"
        }
      ],
      "stateMutability": "view",
      "type": "function"
    },
    {
      "inputs": [],
      "name": "owner",
      "outputs": [
        {
          "internalType": "address",
          "name": "",
          "type": "address"
        }
      ],
      "stateMutability": "view",
      "type": "function"
    },
    {
      "inputs": [
        {
          "internalType": "uint256",
          "name": "tokenId",
          "type": "uint256"
        }
      ],
      "name": "ownerOf",
      "outputs": [
        {
          "internalType": "address",
          "name": "",
          "type": "address"
        }
      ],
      "stateMutability": "view",
      "type": "function"
    },
    {
      "inputs": [
        {
          "internalType": "bytes",
          "name": "",
          "type": "bytes"
        }
      ],
      "name": "performUpkeep",
      "outputs": [],
      "stateMutability": "nonpayable",
      "type": "function"
    },
    {
      "inputs": [
        {
          "internalType": "uint256",
          "name": "requestId",
          "type": "uint256"
        },
        {
          "internalType": "uint256[]",
          "name": "randomWords",
          "type": "uint256[]"
        }
      ],
      "name": "rawFulfillRandomWords",
      "outputs": [],
      "stateMutability": "nonpayable",
      "type": "function"
    },
    {
      "inputs": [],
      "name": "renounceOwnership",
      "outputs": [],
      "stateMutability": "nonpayable",
      "type": "function"
    },
    {
      "inputs": [
        {
          "internalType": "address",
          "name": "to",
          "type": "address"
        }
      ],
      "name": "safeMint",
      "outputs": [],
      "stateMutability": "nonpayable",
      "type": "function"
    },
    {
      "inputs": [
        {
          "internalType": "address",
          "name": "from",
          "type": "address"
        },
        {
          "internalType": "address",
          "name": "to",
          "type": "address"
        },
        {
          "internalType": "uint256",
          "name": "tokenId",
          "type": "uint256"
        }
      ],
      "name": "safeTransferFrom",
      "outputs": [],
      "stateMutability": "nonpayable",
      "type": "function"
    },
    {
      "inputs": [
        {
          "internalType": "address",
          "name": "from",
          "type": "address"
        },
        {
          "internalType": "address",
          "name": "to",
          "type": "address"
        },
        {
          "internalType": "uint256",
          "name": "tokenId",
          "type": "uint256"
        },
        {
          "internalType": "bytes",
          "name": "data",
          "type": "bytes"
        }
      ],
      "name": "safeTransferFrom",
      "outputs": [],
      "stateMutability": "nonpayable",
      "type": "function"
    },
    {
      "inputs": [
        {
          "internalType": "address",
          "name": "operator",
          "type": "address"
        },
        {
          "internalType": "bool",
          "name": "approved",
          "type": "bool"
        }
      ],
      "name": "setApprovalForAll",
      "outputs": [],
      "stateMutability": "nonpayable",
      "type": "function"
    },
    {
      "inputs": [
        {
          "internalType": "bytes4",
          "name": "interfaceId",
          "type": "bytes4"
        }
      ],
      "name": "supportsInterface",
      "outputs": [
        {
          "internalType": "bool",
          "name": "",
          "type": "bool"
        }
      ],
      "stateMutability": "view",
      "type": "function"
    },
    {
      "inputs": [],
      "name": "symbol",
      "outputs": [
        {
          "internalType": "string",
          "name": "",
          "type": "string"
        }
      ],
      "stateMutability": "view",
      "type": "function"
    },
    {
      "inputs": [
        {
          "internalType": "uint256",
          "name": "index",
          "type": "uint256"
        }
      ],
      "name": "tokenByIndex",
      "outputs": [
        {
          "internalType": "uint256",
          "name": "",
          "type": "uint256"
        }
      ],
      "stateMutability": "view",
      "type": "function"
    },
    {
      "inputs": [
        {
          "internalType": "address",
          "name": "owner",
          "type": "address"
        },
        {
          "internalType": "uint256",
          "name": "index",
          "type": "uint256"
        }
      ],
      "name": "tokenOfOwnerByIndex",
      "outputs": [
        {
          "internalType": "uint256",
          "name": "",
          "type": "uint256"
        }
      ],
      "stateMutability": "view",
      "type": "function"
    },
    {
      "inputs": [
        {
          "internalType": "uint256",
          "name": "tokenId",
          "type": "uint256"
        }
      ],
      "name": "tokenURI",
      "outputs": [
        {
          "internalType": "string",
          "name": "",
          "type": "string"
        }
      ],
      "stateMutability": "view",
      "type": "function"
    },
    {
      "inputs": [],
      "name": "totalSupply",
      "outputs": [
        {
          "internalType": "uint256",
          "name": "",
          "type": "uint256"
        }
      ],
      "stateMutability": "view",
      "type": "function"
    },
    {
      "inputs": [
        {
          "internalType": "address",
          "name": "from",
          "type": "address"
        },
        {
          "internalType": "address",
          "name": "to",
          "type": "address"
        },
        {
          "internalType": "uint256",
          "name": "tokenId",
          "type": "uint256"
        }
      ],
      "name": "transferFrom",
      "outputs": [],
      "stateMutability": "nonpayable",
      "type": "function"
    },
    {
      "inputs": [
        {
          "internalType": "address",
          "name": "newOwner",
          "type": "address"
        }
      ],
      "name": "transferOwnership",
      "outputs": [],
      "stateMutability": "nonpayable",
      "type": "function"
    }
  ],
  "transactionHash": "0xf00597878a23cd6dbac111e382fb6cb354f3e034fb489d69c2a1ea4efa0d101d",
  "args": [
    "86400",
    "0xA39434A63A52E749F02807ae27335515BA4b07F7",
    "0x2Ca8E0C643bDe4C2E08ab1fA0da3401AdAD7734D",
    "0x79d3d8832d904592c0bf9818b621522c988bb8b0c05cdc3b15aea1b6e8db0c15",
    "4740",
    "500000"
  ],
  "numDeployments": 2,
  "solcInputHash": "1c82b8c35d4c480d4caf5a8dda76956e",
  "bytecode": "0x6101606040526000600d60006101000a81548160ff021916908360018111156200002e576200002d62000553565b5b021790555060405180606001604052806040518060800160405280605c8152602001620051f7605c913981526020016040518060800160405280605c81526020016200530d605c913981526020016040518060800160405280605d81526020016200519a605d91398152506010906003620000ab92919062000466565b5060405180606001604052806040518060800160405280605d8152602001620052b0605d913981526020016040518060800160405280605d815260200162005369605d913981526020016040518060800160405280605d815260200162005253605d913981525060119060036200012492919062000466565b503480156200013257600080fd5b50604051620053c6380380620053c68339818101604052810190620001589190620006e8565b836040518060400160405280600981526020017f42756c6c264265617200000000000000000000000000000000000000000000008152506040518060400160405280600481526020017f4242544b000000000000000000000000000000000000000000000000000000008152508160009081620001d69190620009f4565b508060019081620001e89190620009f4565b5050506200020b620001ff6200031460201b60201c565b6200031c60201b60201c565b8073ffffffffffffffffffffffffffffffffffffffff1660808173ffffffffffffffffffffffffffffffffffffffff1681525050508560a081815250508473ffffffffffffffffffffffffffffffffffffffff1660c08173ffffffffffffffffffffffffffffffffffffffff16815250508373ffffffffffffffffffffffffffffffffffffffff1660e08173ffffffffffffffffffffffffffffffffffffffff16815250508261010081815250508167ffffffffffffffff166101208167ffffffffffffffff16815250508063ffffffff166101408163ffffffff168152505042600e8190555062000302620003e260201b60201c565b600f8190555050505050505062000be5565b600033905090565b6000600b60009054906101000a900473ffffffffffffffffffffffffffffffffffffffff16905081600b60006101000a81548173ffffffffffffffffffffffffffffffffffffffff021916908373ffffffffffffffffffffffffffffffffffffffff1602179055508173ffffffffffffffffffffffffffffffffffffffff168173ffffffffffffffffffffffffffffffffffffffff167f8be0079c531659141344cd1fd0a4f28419497f9722a3daafe3b4186f6b6457e060405160405180910390a35050565b60008060c05173ffffffffffffffffffffffffffffffffffffffff1663feaf968c6040518163ffffffff1660e01b815260040160a060405180830381865afa15801562000433573d6000803e3d6000fd5b505050506040513d601f19601f8201168201806040525081019062000459919062000b5d565b5050509150508091505090565b828054828255906000526020600020908101928215620004b3579160200282015b82811115620004b2578251829081620004a19190620009f4565b509160200191906001019062000487565b5b509050620004c29190620004c6565b5090565b5b80821115620004ea5760008181620004e09190620004ee565b50600101620004c7565b5090565b508054620004fc90620007ed565b6000825580601f1062000510575062000531565b601f01602090049060005260206000209081019062000530919062000534565b5b50565b5b808211156200054f57600081600090555060010162000535565b5090565b7f4e487b7100000000000000000000000000000000000000000000000000000000600052602160045260246000fd5b600080fd5b6000819050919050565b6200059c8162000587565b8114620005a857600080fd5b50565b600081519050620005bc8162000591565b92915050565b600073ffffffffffffffffffffffffffffffffffffffff82169050919050565b6000620005ef82620005c2565b9050919050565b6200060181620005e2565b81146200060d57600080fd5b50565b6000815190506200062181620005f6565b92915050565b6000819050919050565b6200063c8162000627565b81146200064857600080fd5b50565b6000815190506200065c8162000631565b92915050565b600067ffffffffffffffff82169050919050565b620006818162000662565b81146200068d57600080fd5b50565b600081519050620006a18162000676565b92915050565b600063ffffffff82169050919050565b620006c281620006a7565b8114620006ce57600080fd5b50565b600081519050620006e281620006b7565b92915050565b60008060008060008060c0878903121562000708576200070762000582565b5b60006200071889828a01620005ab565b96505060206200072b89828a0162000610565b95505060406200073e89828a0162000610565b94505060606200075189828a016200064b565b93505060806200076489828a0162000690565b92505060a06200077789828a01620006d1565b9150509295509295509295565b600081519050919050565b7f4e487b7100000000000000000000000000000000000000000000000000000000600052604160045260246000fd5b7f4e487b7100000000000000000000000000000000000000000000000000000000600052602260045260246000fd5b600060028204905060018216806200080657607f821691505b6020821081036200081c576200081b620007be565b5b50919050565b60008190508160005260206000209050919050565b60006020601f8301049050919050565b600082821b905092915050565b600060088302620008867fffffffffffffffffffffffffffffffffffffffffffffffffffffffffffffffff8262000847565b62000892868362000847565b95508019841693508086168417925050509392505050565b6000819050919050565b6000620008d5620008cf620008c98462000587565b620008aa565b62000587565b9050919050565b6000819050919050565b620008f183620008b4565b620009096200090082620008dc565b84845462000854565b825550505050565b600090565b6200092062000911565b6200092d818484620008e6565b505050565b5b8181101562000955576200094960008262000916565b60018101905062000933565b5050565b601f821115620009a4576200096e8162000822565b620009798462000837565b8101602085101562000989578190505b620009a1620009988562000837565b83018262000932565b50505b505050565b600082821c905092915050565b6000620009c960001984600802620009a9565b1980831691505092915050565b6000620009e48383620009b6565b9150826002028217905092915050565b620009ff8262000784565b67ffffffffffffffff81111562000a1b5762000a1a6200078f565b5b62000a278254620007ed565b62000a3482828562000959565b600060209050601f83116001811462000a6c576000841562000a57578287015190505b62000a638582620009d6565b86555062000ad3565b601f19841662000a7c8662000822565b60005b8281101562000aa65784890151825560018201915060208501945060208101905062000a7f565b8683101562000ac6578489015162000ac2601f891682620009b6565b8355505b6001600288020188555050505b505050505050565b600069ffffffffffffffffffff82169050919050565b62000afc8162000adb565b811462000b0857600080fd5b50565b60008151905062000b1c8162000af1565b92915050565b6000819050919050565b62000b378162000b22565b811462000b4357600080fd5b50565b60008151905062000b578162000b2c565b92915050565b600080600080600060a0868803121562000b7c5762000b7b62000582565b5b600062000b8c8882890162000b0b565b955050602062000b9f8882890162000b46565b945050604062000bb288828901620005ab565b935050606062000bc588828901620005ab565b925050608062000bd88882890162000b0b565b9150509295509295909350565b60805160a05160c05160e05161010051610120516101405161454562000c556000396000610b8c01526000610b6901526000610b4801526000610b0c015260008181610fa30152611a1d015260008181610d800152610ee901526000818161076501526107b901526145456000f3fe608060405234801561001057600080fd5b50600436106101a95760003560e01c80636e04ff0d116100f9578063a22cb46511610097578063d8cf24fd11610071578063d8cf24fd146104cd578063e985e9c5146104eb578063f0e8b3ae1461051b578063f2fde38b14610539576101a9565b8063a22cb46514610465578063b88d4fde14610481578063c87b56dd1461049d576101a9565b80638da5cb5b116100d35780638da5cb5b146103ed57806391ad27b41461040b57806395d89b41146104295780639e87a5cd14610447576101a9565b80636e04ff0d1461038257806370a08231146103b3578063715018a6146103e3576101a9565b806323b872dd1161016657806342842e0e1161014057806342842e0e146102ea5780634585e33b146103065780634f6ccce7146103225780636352211e14610352576101a9565b806323b872dd146102825780632f745c591461029e57806340d097c3146102ce576101a9565b806301ffc9a7146101ae57806306fdde03146101de578063081812fc146101fc578063095ea7b31461022c57806318160ddd146102485780631fe543e314610266575b600080fd5b6101c860048036038101906101c39190612ae8565b610555565b6040516101d59190612b30565b60405180910390f35b6101e6610567565b6040516101f39190612bdb565b60405180910390f35b61021660048036038101906102119190612c33565b6105f9565b6040516102239190612ca1565b60405180910390f35b61024660048036038101906102419190612ce8565b61063f565b005b610250610756565b60405161025d9190612d37565b60405180910390f35b610280600480360381019061027b9190612e9a565b610763565b005b61029c60048036038101906102979190612ef6565b610823565b005b6102b860048036038101906102b39190612ce8565b610883565b6040516102c59190612d37565b60405180910390f35b6102e860048036038101906102e39190612f49565b610928565b005b61030460048036038101906102ff9190612ef6565b610a05565b005b610320600480360381019061031b9190612fd1565b610a25565b005b61033c60048036038101906103379190612c33565b610c58565b6040516103499190612d37565b60405180910390f35b61036c60048036038101906103679190612c33565b610cc9565b6040516103799190612ca1565b60405180910390f35b61039c600480360381019061039791906130d3565b610d7a565b6040516103aa929190613171565b60405180910390f35b6103cd60048036038101906103c89190612f49565b610df0565b6040516103da9190612d37565b60405180910390f35b6103eb610ea7565b005b6103f5610ebb565b6040516104029190612ca1565b60405180910390f35b610413610ee5565b6040516104209190612d37565b60405180910390f35b610431610f0d565b60405161043e9190612bdb565b60405180910390f35b61044f610f9f565b60405161045c9190613200565b60405180910390f35b61047f600480360381019061047a9190613247565b610fc7565b005b61049b60048036038101906104969190613287565b610fdd565b005b6104b760048036038101906104b29190612c33565b61103f565b6040516104c49190612bdb565b60405180910390f35b6104d5611051565b6040516104e29190613323565b60405180910390f35b6105056004803603810190610500919061333e565b61105b565b6040516105129190612b30565b60405180910390f35b6105236110ef565b60405161053091906133f5565b60405180910390f35b610553600480360381019061054e9190612f49565b611102565b005b600061056082611185565b9050919050565b6060600080546105769061343f565b80601f01602080910402602001604051908101604052809291908181526020018280546105a29061343f565b80156105ef5780601f106105c4576101008083540402835291602001916105ef565b820191906000526020600020905b8154815290600101906020018083116105d257829003601f168201915b5050505050905090565b6000610604826111ff565b6004600083815260200190815260200160002060009054906101000a900473ffffffffffffffffffffffffffffffffffffffff169050919050565b600061064a82610cc9565b90508073ffffffffffffffffffffffffffffffffffffffff168373ffffffffffffffffffffffffffffffffffffffff16036106ba576040517f08c379a00000000000000000000000000000000000000000000000000000000081526004016106b1906134e2565b60405180910390fd5b8073ffffffffffffffffffffffffffffffffffffffff166106d961124a565b73ffffffffffffffffffffffffffffffffffffffff16148061070857506107078161070261124a565b61105b565b5b610747576040517f08c379a000000000000000000000000000000000000000000000000000000000815260040161073e90613574565b60405180910390fd5b6107518383611252565b505050565b6000600880549050905090565b7f000000000000000000000000000000000000000000000000000000000000000073ffffffffffffffffffffffffffffffffffffffff163373ffffffffffffffffffffffffffffffffffffffff161461081557337f00000000000000000000000000000000000000000000000000000000000000006040517f1cf993f400000000000000000000000000000000000000000000000000000000815260040161080c929190613594565b60405180910390fd5b61081f828261130b565b5050565b61083461082e61124a565b8261166e565b610873576040517f08c379a000000000000000000000000000000000000000000000000000000000815260040161086a9061362f565b60405180910390fd5b61087e838383611703565b505050565b600061088e83610df0565b82106108cf576040517f08c379a00000000000000000000000000000000000000000000000000000000081526004016108c6906136c1565b60405180910390fd5b600660008473ffffffffffffffffffffffffffffffffffffffff1673ffffffffffffffffffffffffffffffffffffffff168152602001908152602001600020600083815260200190815260200160002054905092915050565b6000610934600c611969565b9050610940600c611977565b61094a828261198d565b60006010600081548110610961576109606136e1565b5b9060005260206000200180546109769061343f565b80601f01602080910402602001604051908101604052809291908181526020018280546109a29061343f565b80156109ef5780601f106109c4576101008083540402835291602001916109ef565b820191906000526020600020905b8154815290600101906020018083116109d257829003601f168201915b50505050509050610a0082826119ab565b505050565b610a2083838360405180602001604052806000815250610fdd565b505050565b6000610a3f60405180602001604052806000815250610d7a565b50905080610a79576040517fc1abcf8a00000000000000000000000000000000000000000000000000000000815260040160405180910390fd5b42600e819055506000610a8a611a18565b9050600f548103610a9c575050610c54565b600f54811315610ad2576000600d60006101000a81548160ff02191690836001811115610acc57610acb61337e565b5b02179055505b600f54811215610b08576001600d60006101000a81548160ff02191690836001811115610b0257610b0161337e565b5b02179055505b60007f000000000000000000000000000000000000000000000000000000000000000073ffffffffffffffffffffffffffffffffffffffff16635d3b1d307f00000000000000000000000000000000000000000000000000000000000000007f000000000000000000000000000000000000000000000000000000000000000060037f000000000000000000000000000000000000000000000000000000000000000060016040518663ffffffff1660e01b8152600401610bcd959493929190613788565b6020604051808303816000875af1158015610bec573d6000803e3d6000fd5b505050506040513d601f19601f82011682018060405250810190610c1091906137f0565b90507fae4e5250079935b4d29c1856f1fa3777f4c90321cd195263b4c06273edfef67881604051610c419190612d37565b60405180910390a181600f819055505050505b5050565b6000610c62610756565b8210610ca3576040517f08c379a0000000000000000000000000000000000000000000000000000000008152600401610c9a9061388f565b60405180910390fd5b60088281548110610cb757610cb66136e1565b5b90600052602060002001549050919050565b6000806002600084815260200190815260200160002060009054906101000a900473ffffffffffffffffffffffffffffffffffffffff169050600073ffffffffffffffffffffffffffffffffffffffff168173ffffffffffffffffffffffffffffffffffffffff1603610d71576040517f08c379a0000000000000000000000000000000000000000000000000000000008152600401610d68906138fb565b60405180910390fd5b80915050919050565b600060607f0000000000000000000000000000000000000000000000000000000000000000600e5442610dad919061394a565b119150816040518060400160405280600381526020017f307830000000000000000000000000000000000000000000000000000000000081525091509150915091565b60008073ffffffffffffffffffffffffffffffffffffffff168273ffffffffffffffffffffffffffffffffffffffff1603610e60576040517f08c379a0000000000000000000000000000000000000000000000000000000008152600401610e57906139f0565b60405180910390fd5b600360008373ffffffffffffffffffffffffffffffffffffffff1673ffffffffffffffffffffffffffffffffffffffff168152602001908152602001600020549050919050565b610eaf611ab7565b610eb96000611b35565b565b6000600b60009054906101000a900473ffffffffffffffffffffffffffffffffffffffff16905090565b60007f0000000000000000000000000000000000000000000000000000000000000000905090565b606060018054610f1c9061343f565b80601f0160208091040260200160405190810160405280929190818152602001828054610f489061343f565b8015610f955780601f10610f6a57610100808354040283529160200191610f95565b820191906000526020600020905b815481529060010190602001808311610f7857829003601f168201915b5050505050905090565b60007f0000000000000000000000000000000000000000000000000000000000000000905090565b610fd9610fd261124a565b8383611bfb565b5050565b610fee610fe861124a565b8361166e565b61102d576040517f08c379a00000000000000000000000000000000000000000000000000000000081526004016110249061362f565b60405180910390fd5b61103984848484611d67565b50505050565b606061104a82611dc3565b9050919050565b6000600f54905090565b6000600560008473ffffffffffffffffffffffffffffffffffffffff1673ffffffffffffffffffffffffffffffffffffffff16815260200190815260200160002060008373ffffffffffffffffffffffffffffffffffffffff1673ffffffffffffffffffffffffffffffffffffffff16815260200190815260200160002060009054906101000a900460ff16905092915050565b600d60009054906101000a900460ff1681565b61110a611ab7565b600073ffffffffffffffffffffffffffffffffffffffff168173ffffffffffffffffffffffffffffffffffffffff1603611179576040517f08c379a000000000000000000000000000000000000000000000000000000000815260040161117090613a82565b60405180910390fd5b61118281611b35565b50565b60007f780e9d63000000000000000000000000000000000000000000000000000000007bffffffffffffffffffffffffffffffffffffffffffffffffffffffff1916827bffffffffffffffffffffffffffffffffffffffffffffffffffffffff191614806111f857506111f782611ed5565b5b9050919050565b61120881611fb7565b611247576040517f08c379a000000000000000000000000000000000000000000000000000000000815260040161123e906138fb565b60405180910390fd5b50565b600033905090565b816004600083815260200190815260200160002060006101000a81548173ffffffffffffffffffffffffffffffffffffffff021916908373ffffffffffffffffffffffffffffffffffffffff160217905550808273ffffffffffffffffffffffffffffffffffffffff166112c583610cc9565b73ffffffffffffffffffffffffffffffffffffffff167f8c5be1e5ebec7d5bd14f71427d1e84f3dd0314c0f7b2291e5b200ac8c7c3b92560405160405180910390a45050565b60018081111561131e5761131d61337e565b5b600d60009054906101000a900460ff1660018111156113405761133f61337e565b5b036114495760005b611352600c611969565b81101561144357611430816011600385600081518110611375576113746136e1565b5b60200260200101516113879190613ad1565b81548110611398576113976136e1565b5b9060005260206000200180546113ad9061343f565b80601f01602080910402602001604051908101604052809291908181526020018280546113d99061343f565b80156114265780601f106113fb57610100808354040283529160200191611426565b820191906000526020600020905b81548152906001019060200180831161140957829003601f168201915b50505050506119ab565b808061143b90613b02565b915050611348565b50611549565b60005b611456600c611969565b81101561154757611534816010600385600081518110611479576114786136e1565b5b602002602001015161148b9190613ad1565b8154811061149c5761149b6136e1565b5b9060005260206000200180546114b19061343f565b80601f01602080910402602001604051908101604052809291908181526020018280546114dd9061343f565b801561152a5780601f106114ff5761010080835404028352916020019161152a565b820191906000526020600020905b81548152906001019060200180831161150d57829003601f168201915b50505050506119ab565b808061153f90613b02565b91505061144c565b505b600080600181111561155e5761155d61337e565b5b600d60009054906101000a900460ff1660018111156115805761157f61337e565b5b146115c0576040518060400160405280600781526020017f62656172697368000000000000000000000000000000000000000000000000008152506115f7565b6040518060400160405280600781526020017f62756c6c697368000000000000000000000000000000000000000000000000008152505b90507f1cd67277dcd039d660f99499bdb46e90175d6160e3f9ab788a032b7a1ad2356a816040516116289190612bdb565b60405180910390a17ffe2e2d779dba245964d4e3ef9b994be63856fd568bf7d3ca9e224755cb1bd54d8383604051611661929190613c08565b60405180910390a1505050565b60008061167a83610cc9565b90508073ffffffffffffffffffffffffffffffffffffffff168473ffffffffffffffffffffffffffffffffffffffff1614806116bc57506116bb818561105b565b5b806116fa57508373ffffffffffffffffffffffffffffffffffffffff166116e2846105f9565b73ffffffffffffffffffffffffffffffffffffffff16145b91505092915050565b8273ffffffffffffffffffffffffffffffffffffffff1661172382610cc9565b73ffffffffffffffffffffffffffffffffffffffff1614611779576040517f08c379a000000000000000000000000000000000000000000000000000000000815260040161177090613caa565b60405180910390fd5b600073ffffffffffffffffffffffffffffffffffffffff168273ffffffffffffffffffffffffffffffffffffffff16036117e8576040517f08c379a00000000000000000000000000000000000000000000000000000000081526004016117df90613d3c565b60405180910390fd5b6117f3838383612023565b6117fe600082611252565b6001600360008573ffffffffffffffffffffffffffffffffffffffff1673ffffffffffffffffffffffffffffffffffffffff168152602001908152602001600020600082825461184e919061394a565b925050819055506001600360008473ffffffffffffffffffffffffffffffffffffffff1673ffffffffffffffffffffffffffffffffffffffff16815260200190815260200160002060008282546118a59190613d5c565b92505081905550816002600083815260200190815260200160002060006101000a81548173ffffffffffffffffffffffffffffffffffffffff021916908373ffffffffffffffffffffffffffffffffffffffff160217905550808273ffffffffffffffffffffffffffffffffffffffff168473ffffffffffffffffffffffffffffffffffffffff167fddf252ad1be2c89b69c2b068fc378daa952ba7f163c4a11628f55a4df523b3ef60405160405180910390a4611964838383612033565b505050565b600081600001549050919050565b6001816000016000828254019250508190555050565b6119a7828260405180602001604052806000815250612038565b5050565b6119b482611fb7565b6119f3576040517f08c379a00000000000000000000000000000000000000000000000000000000081526004016119ea90613e02565b60405180910390fd5b80600a60008481526020019081526020016000209081611a139190613fc4565b505050565b6000807f000000000000000000000000000000000000000000000000000000000000000073ffffffffffffffffffffffffffffffffffffffff1663feaf968c6040518163ffffffff1660e01b815260040160a060405180830381865afa158015611a86573d6000803e3d6000fd5b505050506040513d601f19601f82011682018060405250810190611aaa9190614104565b5050509150508091505090565b611abf61124a565b73ffffffffffffffffffffffffffffffffffffffff16611add610ebb565b73ffffffffffffffffffffffffffffffffffffffff1614611b33576040517f08c379a0000000000000000000000000000000000000000000000000000000008152600401611b2a906141cb565b60405180910390fd5b565b6000600b60009054906101000a900473ffffffffffffffffffffffffffffffffffffffff16905081600b60006101000a81548173ffffffffffffffffffffffffffffffffffffffff021916908373ffffffffffffffffffffffffffffffffffffffff1602179055508173ffffffffffffffffffffffffffffffffffffffff168173ffffffffffffffffffffffffffffffffffffffff167f8be0079c531659141344cd1fd0a4f28419497f9722a3daafe3b4186f6b6457e060405160405180910390a35050565b8173ffffffffffffffffffffffffffffffffffffffff168373ffffffffffffffffffffffffffffffffffffffff1603611c69576040517f08c379a0000000000000000000000000000000000000000000000000000000008152600401611c6090614237565b60405180910390fd5b80600560008573ffffffffffffffffffffffffffffffffffffffff1673ffffffffffffffffffffffffffffffffffffffff16815260200190815260200160002060008473ffffffffffffffffffffffffffffffffffffffff1673ffffffffffffffffffffffffffffffffffffffff16815260200190815260200160002060006101000a81548160ff0219169083151502179055508173ffffffffffffffffffffffffffffffffffffffff168373ffffffffffffffffffffffffffffffffffffffff167f17307eab39ab6107e8899845ad3d59bd9653f200f220920489ca2b5937696c3183604051611d5a9190612b30565b60405180910390a3505050565b611d72848484611703565b611d7e84848484612093565b611dbd576040517f08c379a0000000000000000000000000000000000000000000000000000000008152600401611db4906142c9565b60405180910390fd5b50505050565b6060611dce826111ff565b6000600a60008481526020019081526020016000208054611dee9061343f565b80601f0160208091040260200160405190810160405280929190818152602001828054611e1a9061343f565b8015611e675780601f10611e3c57610100808354040283529160200191611e67565b820191906000526020600020905b815481529060010190602001808311611e4a57829003601f168201915b505050505090506000611e7861221a565b90506000815103611e8d578192505050611ed0565b600082511115611ec2578082604051602001611eaa929190614325565b60405160208183030381529060405292505050611ed0565b611ecb84612231565b925050505b919050565b60007f80ac58cd000000000000000000000000000000000000000000000000000000007bffffffffffffffffffffffffffffffffffffffffffffffffffffffff1916827bffffffffffffffffffffffffffffffffffffffffffffffffffffffff19161480611fa057507f5b5e139f000000000000000000000000000000000000000000000000000000007bffffffffffffffffffffffffffffffffffffffffffffffffffffffff1916827bffffffffffffffffffffffffffffffffffffffffffffffffffffffff1916145b80611fb05750611faf82612299565b5b9050919050565b60008073ffffffffffffffffffffffffffffffffffffffff166002600084815260200190815260200160002060009054906101000a900473ffffffffffffffffffffffffffffffffffffffff1673ffffffffffffffffffffffffffffffffffffffff1614159050919050565b61202e838383612303565b505050565b505050565b6120428383612415565b61204f6000848484612093565b61208e576040517f08c379a0000000000000000000000000000000000000000000000000000000008152600401612085906142c9565b60405180910390fd5b505050565b60006120b48473ffffffffffffffffffffffffffffffffffffffff166125ee565b1561220d578373ffffffffffffffffffffffffffffffffffffffff1663150b7a026120dd61124a565b8786866040518563ffffffff1660e01b81526004016120ff9493929190614349565b6020604051808303816000875af192505050801561213b57506040513d601f19601f8201168201806040525081019061213891906143aa565b60015b6121bd573d806000811461216b576040519150601f19603f3d011682016040523d82523d6000602084013e612170565b606091505b5060008151036121b5576040517f08c379a00000000000000000000000000000000000000000000000000000000081526004016121ac906142c9565b60405180910390fd5b805181602001fd5b63150b7a0260e01b7bffffffffffffffffffffffffffffffffffffffffffffffffffffffff1916817bffffffffffffffffffffffffffffffffffffffffffffffffffffffff191614915050612212565b600190505b949350505050565b606060405180602001604052806000815250905090565b606061223c826111ff565b600061224661221a565b905060008151116122665760405180602001604052806000815250612291565b8061227084612611565b604051602001612281929190614325565b6040516020818303038152906040525b915050919050565b60007f01ffc9a7000000000000000000000000000000000000000000000000000000007bffffffffffffffffffffffffffffffffffffffffffffffffffffffff1916827bffffffffffffffffffffffffffffffffffffffffffffffffffffffff1916149050919050565b61230e838383612771565b600073ffffffffffffffffffffffffffffffffffffffff168373ffffffffffffffffffffffffffffffffffffffff16036123505761234b81612776565b61238f565b8173ffffffffffffffffffffffffffffffffffffffff168373ffffffffffffffffffffffffffffffffffffffff161461238e5761238d83826127bf565b5b5b600073ffffffffffffffffffffffffffffffffffffffff168273ffffffffffffffffffffffffffffffffffffffff16036123d1576123cc8161292c565b612410565b8273ffffffffffffffffffffffffffffffffffffffff168273ffffffffffffffffffffffffffffffffffffffff161461240f5761240e82826129fd565b5b5b505050565b600073ffffffffffffffffffffffffffffffffffffffff168273ffffffffffffffffffffffffffffffffffffffff1603612484576040517f08c379a000000000000000000000000000000000000000000000000000000000815260040161247b90614423565b60405180910390fd5b61248d81611fb7565b156124cd576040517f08c379a00000000000000000000000000000000000000000000000000000000081526004016124c49061448f565b60405180910390fd5b6124d960008383612023565b6001600360008473ffffffffffffffffffffffffffffffffffffffff1673ffffffffffffffffffffffffffffffffffffffff16815260200190815260200160002060008282546125299190613d5c565b92505081905550816002600083815260200190815260200160002060006101000a81548173ffffffffffffffffffffffffffffffffffffffff021916908373ffffffffffffffffffffffffffffffffffffffff160217905550808273ffffffffffffffffffffffffffffffffffffffff16600073ffffffffffffffffffffffffffffffffffffffff167fddf252ad1be2c89b69c2b068fc378daa952ba7f163c4a11628f55a4df523b3ef60405160405180910390a46125ea60008383612033565b5050565b6000808273ffffffffffffffffffffffffffffffffffffffff163b119050919050565b606060008203612658576040518060400160405280600181526020017f3000000000000000000000000000000000000000000000000000000000000000815250905061276c565b600082905060005b6000821461268a57808061267390613b02565b915050600a8261268391906144af565b9150612660565b60008167ffffffffffffffff8111156126a6576126a5612d57565b5b6040519080825280601f01601f1916602001820160405280156126d85781602001600182028036833780820191505090505b5090505b60008514612765576001826126f1919061394a565b9150600a856127009190613ad1565b603061270c9190613d5c565b60f81b818381518110612722576127216136e1565b5b60200101907effffffffffffffffffffffffffffffffffffffffffffffffffffffffffffff1916908160001a905350600a8561275e91906144af565b94506126dc565b8093505050505b919050565b505050565b6008805490506009600083815260200190815260200160002081905550600881908060018154018082558091505060019003906000526020600020016000909190919091505550565b600060016127cc84610df0565b6127d6919061394a565b90506000600760008481526020019081526020016000205490508181146128bb576000600660008673ffffffffffffffffffffffffffffffffffffffff1673ffffffffffffffffffffffffffffffffffffffff168152602001908152602001600020600084815260200190815260200160002054905080600660008773ffffffffffffffffffffffffffffffffffffffff1673ffffffffffffffffffffffffffffffffffffffff168152602001908152602001600020600084815260200190815260200160002081905550816007600083815260200190815260200160002081905550505b6007600084815260200190815260200160002060009055600660008573ffffffffffffffffffffffffffffffffffffffff1673ffffffffffffffffffffffffffffffffffffffff16815260200190815260200160002060008381526020019081526020016000206000905550505050565b60006001600880549050612940919061394a565b90506000600960008481526020019081526020016000205490506000600883815481106129705761296f6136e1565b5b906000526020600020015490508060088381548110612992576129916136e1565b5b9060005260206000200181905550816009600083815260200190815260200160002081905550600960008581526020019081526020016000206000905560088054806129e1576129e06144e0565b5b6001900381819060005260206000200160009055905550505050565b6000612a0883610df0565b905081600660008573ffffffffffffffffffffffffffffffffffffffff1673ffffffffffffffffffffffffffffffffffffffff168152602001908152602001600020600083815260200190815260200160002081905550806007600084815260200190815260200160002081905550505050565b6000604051905090565b600080fd5b600080fd5b60007fffffffff0000000000000000000000000000000000000000000000000000000082169050919050565b612ac581612a90565b8114612ad057600080fd5b50565b600081359050612ae281612abc565b92915050565b600060208284031215612afe57612afd612a86565b5b6000612b0c84828501612ad3565b91505092915050565b60008115159050919050565b612b2a81612b15565b82525050565b6000602082019050612b456000830184612b21565b92915050565b600081519050919050565b600082825260208201905092915050565b60005b83811015612b85578082015181840152602081019050612b6a565b60008484015250505050565b6000601f19601f8301169050919050565b6000612bad82612b4b565b612bb78185612b56565b9350612bc7818560208601612b67565b612bd081612b91565b840191505092915050565b60006020820190508181036000830152612bf58184612ba2565b905092915050565b6000819050919050565b612c1081612bfd565b8114612c1b57600080fd5b50565b600081359050612c2d81612c07565b92915050565b600060208284031215612c4957612c48612a86565b5b6000612c5784828501612c1e565b91505092915050565b600073ffffffffffffffffffffffffffffffffffffffff82169050919050565b6000612c8b82612c60565b9050919050565b612c9b81612c80565b82525050565b6000602082019050612cb66000830184612c92565b92915050565b612cc581612c80565b8114612cd057600080fd5b50565b600081359050612ce281612cbc565b92915050565b60008060408385031215612cff57612cfe612a86565b5b6000612d0d85828601612cd3565b9250506020612d1e85828601612c1e565b9150509250929050565b612d3181612bfd565b82525050565b6000602082019050612d4c6000830184612d28565b92915050565b600080fd5b7f4e487b7100000000000000000000000000000000000000000000000000000000600052604160045260246000fd5b612d8f82612b91565b810181811067ffffffffffffffff82111715612dae57612dad612d57565b5b80604052505050565b6000612dc1612a7c565b9050612dcd8282612d86565b919050565b600067ffffffffffffffff821115612ded57612dec612d57565b5b602082029050602081019050919050565b600080fd5b6000612e16612e1184612dd2565b612db7565b90508083825260208201905060208402830185811115612e3957612e38612dfe565b5b835b81811015612e625780612e4e8882612c1e565b845260208401935050602081019050612e3b565b5050509392505050565b600082601f830112612e8157612e80612d52565b5b8135612e91848260208601612e03565b91505092915050565b60008060408385031215612eb157612eb0612a86565b5b6000612ebf85828601612c1e565b925050602083013567ffffffffffffffff811115612ee057612edf612a8b565b5b612eec85828601612e6c565b9150509250929050565b600080600060608486031215612f0f57612f0e612a86565b5b6000612f1d86828701612cd3565b9350506020612f2e86828701612cd3565b9250506040612f3f86828701612c1e565b9150509250925092565b600060208284031215612f5f57612f5e612a86565b5b6000612f6d84828501612cd3565b91505092915050565b600080fd5b60008083601f840112612f9157612f90612d52565b5b8235905067ffffffffffffffff811115612fae57612fad612f76565b5b602083019150836001820283011115612fca57612fc9612dfe565b5b9250929050565b60008060208385031215612fe857612fe7612a86565b5b600083013567ffffffffffffffff81111561300657613005612a8b565b5b61301285828601612f7b565b92509250509250929050565b600080fd5b600067ffffffffffffffff82111561303e5761303d612d57565b5b61304782612b91565b9050602081019050919050565b82818337600083830152505050565b600061307661307184613023565b612db7565b9050828152602081018484840111156130925761309161301e565b5b61309d848285613054565b509392505050565b600082601f8301126130ba576130b9612d52565b5b81356130ca848260208601613063565b91505092915050565b6000602082840312156130e9576130e8612a86565b5b600082013567ffffffffffffffff81111561310757613106612a8b565b5b613113848285016130a5565b91505092915050565b600081519050919050565b600082825260208201905092915050565b60006131438261311c565b61314d8185613127565b935061315d818560208601612b67565b61316681612b91565b840191505092915050565b60006040820190506131866000830185612b21565b81810360208301526131988184613138565b90509392505050565b6000819050919050565b60006131c66131c16131bc84612c60565b6131a1565b612c60565b9050919050565b60006131d8826131ab565b9050919050565b60006131ea826131cd565b9050919050565b6131fa816131df565b82525050565b600060208201905061321560008301846131f1565b92915050565b61322481612b15565b811461322f57600080fd5b50565b6000813590506132418161321b565b92915050565b6000806040838503121561325e5761325d612a86565b5b600061326c85828601612cd3565b925050602061327d85828601613232565b9150509250929050565b600080600080608085870312156132a1576132a0612a86565b5b60006132af87828801612cd3565b94505060206132c087828801612cd3565b93505060406132d187828801612c1e565b925050606085013567ffffffffffffffff8111156132f2576132f1612a8b565b5b6132fe878288016130a5565b91505092959194509250565b6000819050919050565b61331d8161330a565b82525050565b60006020820190506133386000830184613314565b92915050565b6000806040838503121561335557613354612a86565b5b600061336385828601612cd3565b925050602061337485828601612cd3565b9150509250929050565b7f4e487b7100000000000000000000000000000000000000000000000000000000600052602160045260246000fd5b600281106133be576133bd61337e565b5b50565b60008190506133cf826133ad565b919050565b60006133df826133c1565b9050919050565b6133ef816133d4565b82525050565b600060208201905061340a60008301846133e6565b92915050565b7f4e487b7100000000000000000000000000000000000000000000000000000000600052602260045260246000fd5b6000600282049050600182168061345757607f821691505b60208210810361346a57613469613410565b5b50919050565b7f4552433732313a20617070726f76616c20746f2063757272656e74206f776e6560008201527f7200000000000000000000000000000000000000000000000000000000000000602082015250565b60006134cc602183612b56565b91506134d782613470565b604082019050919050565b600060208201905081810360008301526134fb816134bf565b9050919050565b7f4552433732313a20617070726f76652063616c6c6572206973206e6f7420746f60008201527f6b656e206f776e6572206e6f7220617070726f76656420666f7220616c6c0000602082015250565b600061355e603e83612b56565b915061356982613502565b604082019050919050565b6000602082019050818103600083015261358d81613551565b9050919050565b60006040820190506135a96000830185612c92565b6135b66020830184612c92565b9392505050565b7f4552433732313a2063616c6c6572206973206e6f7420746f6b656e206f776e6560008201527f72206e6f7220617070726f766564000000000000000000000000000000000000602082015250565b6000613619602e83612b56565b9150613624826135bd565b604082019050919050565b600060208201905081810360008301526136488161360c565b9050919050565b7f455243373231456e756d657261626c653a206f776e657220696e646578206f7560008201527f74206f6620626f756e6473000000000000000000000000000000000000000000602082015250565b60006136ab602b83612b56565b91506136b68261364f565b604082019050919050565b600060208201905081810360008301526136da8161369e565b9050919050565b7f4e487b7100000000000000000000000000000000000000000000000000000000600052603260045260246000fd5b6000819050919050565b61372381613710565b82525050565b600067ffffffffffffffff82169050919050565b61374681613729565b82525050565b600061ffff82169050919050565b6137638161374c565b82525050565b600063ffffffff82169050919050565b61378281613769565b82525050565b600060a08201905061379d600083018861371a565b6137aa602083018761373d565b6137b7604083018661375a565b6137c46060830185613779565b6137d16080830184613779565b9695505050505050565b6000815190506137ea81612c07565b92915050565b60006020828403121561380657613805612a86565b5b6000613814848285016137db565b91505092915050565b7f455243373231456e756d657261626c653a20676c6f62616c20696e646578206f60008201527f7574206f6620626f756e64730000000000000000000000000000000000000000602082015250565b6000613879602c83612b56565b91506138848261381d565b604082019050919050565b600060208201905081810360008301526138a88161386c565b9050919050565b7f4552433732313a20696e76616c696420746f6b656e2049440000000000000000600082015250565b60006138e5601883612b56565b91506138f0826138af565b602082019050919050565b60006020820190508181036000830152613914816138d8565b9050919050565b7f4e487b7100000000000000000000000000000000000000000000000000000000600052601160045260246000fd5b600061395582612bfd565b915061396083612bfd565b92508282039050818111156139785761397761391b565b5b92915050565b7f4552433732313a2061646472657373207a65726f206973206e6f74206120766160008201527f6c6964206f776e65720000000000000000000000000000000000000000000000602082015250565b60006139da602983612b56565b91506139e58261397e565b604082019050919050565b60006020820190508181036000830152613a09816139cd565b9050919050565b7f4f776e61626c653a206e6577206f776e657220697320746865207a65726f206160008201527f6464726573730000000000000000000000000000000000000000000000000000602082015250565b6000613a6c602683612b56565b9150613a7782613a10565b604082019050919050565b60006020820190508181036000830152613a9b81613a5f565b9050919050565b7f4e487b7100000000000000000000000000000000000000000000000000000000600052601260045260246000fd5b6000613adc82612bfd565b9150613ae783612bfd565b925082613af757613af6613aa2565b5b828206905092915050565b6000613b0d82612bfd565b91507fffffffffffffffffffffffffffffffffffffffffffffffffffffffffffffffff8203613b3f57613b3e61391b565b5b600182019050919050565b600081519050919050565b600082825260208201905092915050565b6000819050602082019050919050565b613b7f81612bfd565b82525050565b6000613b918383613b76565b60208301905092915050565b6000602082019050919050565b6000613bb582613b4a565b613bbf8185613b55565b9350613bca83613b66565b8060005b83811015613bfb578151613be28882613b85565b9750613bed83613b9d565b925050600181019050613bce565b5085935050505092915050565b6000604082019050613c1d6000830185612d28565b8181036020830152613c2f8184613baa565b90509392505050565b7f4552433732313a207472616e736665722066726f6d20696e636f72726563742060008201527f6f776e6572000000000000000000000000000000000000000000000000000000602082015250565b6000613c94602583612b56565b9150613c9f82613c38565b604082019050919050565b60006020820190508181036000830152613cc381613c87565b9050919050565b7f4552433732313a207472616e7366657220746f20746865207a65726f2061646460008201527f7265737300000000000000000000000000000000000000000000000000000000602082015250565b6000613d26602483612b56565b9150613d3182613cca565b604082019050919050565b60006020820190508181036000830152613d5581613d19565b9050919050565b6000613d6782612bfd565b9150613d7283612bfd565b9250828201905080821115613d8a57613d8961391b565b5b92915050565b7f45524337323155524953746f726167653a2055524920736574206f66206e6f6e60008201527f6578697374656e7420746f6b656e000000000000000000000000000000000000602082015250565b6000613dec602e83612b56565b9150613df782613d90565b604082019050919050565b60006020820190508181036000830152613e1b81613ddf565b9050919050565b60008190508160005260206000209050919050565b60006020601f8301049050919050565b600082821b905092915050565b600060088302613e847fffffffffffffffffffffffffffffffffffffffffffffffffffffffffffffffff82613e47565b613e8e8683613e47565b95508019841693508086168417925050509392505050565b6000613ec1613ebc613eb784612bfd565b6131a1565b612bfd565b9050919050565b6000819050919050565b613edb83613ea6565b613eef613ee782613ec8565b848454613e54565b825550505050565b600090565b613f04613ef7565b613f0f818484613ed2565b505050565b5b81811015613f3357613f28600082613efc565b600181019050613f15565b5050565b601f821115613f7857613f4981613e22565b613f5284613e37565b81016020851015613f61578190505b613f75613f6d85613e37565b830182613f14565b50505b505050565b600082821c905092915050565b6000613f9b60001984600802613f7d565b1980831691505092915050565b6000613fb48383613f8a565b9150826002028217905092915050565b613fcd82612b4b565b67ffffffffffffffff811115613fe657613fe5612d57565b5b613ff0825461343f565b613ffb828285613f37565b600060209050601f83116001811461402e576000841561401c578287015190505b6140268582613fa8565b86555061408e565b601f19841661403c86613e22565b60005b828110156140645784890151825560018201915060208501945060208101905061403f565b86831015614081578489015161407d601f891682613f8a565b8355505b6001600288020188555050505b505050505050565b600069ffffffffffffffffffff82169050919050565b6140b581614096565b81146140c057600080fd5b50565b6000815190506140d2816140ac565b92915050565b6140e18161330a565b81146140ec57600080fd5b50565b6000815190506140fe816140d8565b92915050565b600080600080600060a086880312156141205761411f612a86565b5b600061412e888289016140c3565b955050602061413f888289016140ef565b9450506040614150888289016137db565b9350506060614161888289016137db565b9250506080614172888289016140c3565b9150509295509295909350565b7f4f776e61626c653a2063616c6c6572206973206e6f7420746865206f776e6572600082015250565b60006141b5602083612b56565b91506141c08261417f565b602082019050919050565b600060208201905081810360008301526141e4816141a8565b9050919050565b7f4552433732313a20617070726f766520746f2063616c6c657200000000000000600082015250565b6000614221601983612b56565b915061422c826141eb565b602082019050919050565b6000602082019050818103600083015261425081614214565b9050919050565b7f4552433732313a207472616e7366657220746f206e6f6e20455243373231526560008201527f63656976657220696d706c656d656e7465720000000000000000000000000000602082015250565b60006142b3603283612b56565b91506142be82614257565b604082019050919050565b600060208201905081810360008301526142e2816142a6565b9050919050565b600081905092915050565b60006142ff82612b4b565b61430981856142e9565b9350614319818560208601612b67565b80840191505092915050565b600061433182856142f4565b915061433d82846142f4565b91508190509392505050565b600060808201905061435e6000830187612c92565b61436b6020830186612c92565b6143786040830185612d28565b818103606083015261438a8184613138565b905095945050505050565b6000815190506143a481612abc565b92915050565b6000602082840312156143c0576143bf612a86565b5b60006143ce84828501614395565b91505092915050565b7f4552433732313a206d696e7420746f20746865207a65726f2061646472657373600082015250565b600061440d602083612b56565b9150614418826143d7565b602082019050919050565b6000602082019050818103600083015261443c81614400565b9050919050565b7f4552433732313a20746f6b656e20616c7265616479206d696e74656400000000600082015250565b6000614479601c83612b56565b915061448482614443565b602082019050919050565b600060208201905081810360008301526144a88161446c565b9050919050565b60006144ba82612bfd565b91506144c583612bfd565b9250826144d5576144d4613aa2565b5b828204905092915050565b7f4e487b7100000000000000000000000000000000000000000000000000000000600052603160045260246000fdfea264697066735822122058a6074938ab5186575e83128351d7cda063bdf7588952516c521be9188e485e64736f6c6343000811003368747470733a2f2f697066732e696f2f697066732f516d646355526d4e316b4545744b676e626b564a4a3868726d73535748705a764c6b5267734b4b6f6957765739673f66696c656e616d653d73696d706c655f62756c6c2e6a736f6e68747470733a2f2f697066732e696f2f697066732f516d5258796669336f4e5a43756244786956467265336b4c5a3858654774367051736e4151525a37616b68534e733f66696c656e616d653d67616d65725f62756c6c2e6a736f6e68747470733a2f2f697066732e696f2f697066732f516d624b68425856576d777259735450465966726f52324e374e41656b414d78485556673243576b73376939716a3f66696c656e616d653d73696d706c655f626561722e6a736f6e68747470733a2f2f697066732e696f2f697066732f516d6478394878374643445a474578796a4c52367659636e75745552384b68425a426e5a6641504869556f6d6d4e3f66696c656e616d653d6265616e69655f626561722e6a736f6e68747470733a2f2f697066732e696f2f697066732f516d524a5646654d7274595332435556554d3263484a70425635615832787572706e73665a784c545451626944333f66696c656e616d653d70617274795f62756c6c2e6a736f6e68747470733a2f2f697066732e696f2f697066732f516d54564c79545375694b4755456d6238384267584733714e4338596770485a6946626a4872584b4833514845753f66696c656e616d653d636f6f6c696f5f626561722e6a736f6e",
  "devdoc": {
    "kind": "dev",
    "methods": {
      "approve(address,uint256)": {
        "details": "See {IERC721-approve}."
      },
      "balanceOf(address)": {
        "details": "See {IERC721-balanceOf}."
      },
      "getApproved(uint256)": {
        "details": "See {IERC721-getApproved}."
      },
      "isApprovedForAll(address,address)": {
        "details": "See {IERC721-isApprovedForAll}."
      },
      "name()": {
        "details": "See {IERC721Metadata-name}."
      },
      "owner()": {
        "details": "Returns the address of the current owner."
      },
      "ownerOf(uint256)": {
        "details": "See {IERC721-ownerOf}."
      },
      "renounceOwnership()": {
        "details": "Leaves the contract without owner. It will not be possible to call `onlyOwner` functions anymore. Can only be called by the current owner. NOTE: Renouncing ownership will leave the contract without an owner, thereby removing any functionality that is only available to the owner."
      },
      "safeTransferFrom(address,address,uint256)": {
        "details": "See {IERC721-safeTransferFrom}."
      },
      "safeTransferFrom(address,address,uint256,bytes)": {
        "details": "See {IERC721-safeTransferFrom}."
      },
      "setApprovalForAll(address,bool)": {
        "details": "See {IERC721-setApprovalForAll}."
      },
      "symbol()": {
        "details": "See {IERC721Metadata-symbol}."
      },
      "tokenByIndex(uint256)": {
        "details": "See {IERC721Enumerable-tokenByIndex}."
      },
      "tokenOfOwnerByIndex(address,uint256)": {
        "details": "See {IERC721Enumerable-tokenOfOwnerByIndex}."
      },
      "totalSupply()": {
        "details": "See {IERC721Enumerable-totalSupply}."
      },
      "transferFrom(address,address,uint256)": {
        "details": "See {IERC721-transferFrom}."
      },
      "transferOwnership(address)": {
        "details": "Transfers ownership of the contract to a new account (`newOwner`). Can only be called by the current owner."
      }
    },
    "version": 1
  },
  "userdoc": {
    "kind": "user",
    "methods": {},
    "version": 1
  },
  "storageLayout": {
    "storage": [
      {
        "astId": 1362,
        "contract": "contracts/BullBear.sol:BullBear",
        "label": "_name",
        "offset": 0,
        "slot": "0",
        "type": "t_string_storage"
      },
      {
        "astId": 1364,
        "contract": "contracts/BullBear.sol:BullBear",
        "label": "_symbol",
        "offset": 0,
        "slot": "1",
        "type": "t_string_storage"
      },
      {
        "astId": 1368,
        "contract": "contracts/BullBear.sol:BullBear",
        "label": "_owners",
        "offset": 0,
        "slot": "2",
        "type": "t_mapping(t_uint256,t_address)"
      },
      {
        "astId": 1372,
        "contract": "contracts/BullBear.sol:BullBear",
        "label": "_balances",
        "offset": 0,
        "slot": "3",
        "type": "t_mapping(t_address,t_uint256)"
      },
      {
        "astId": 1376,
        "contract": "contracts/BullBear.sol:BullBear",
        "label": "_tokenApprovals",
        "offset": 0,
        "slot": "4",
        "type": "t_mapping(t_uint256,t_address)"
      },
      {
        "astId": 1382,
        "contract": "contracts/BullBear.sol:BullBear",
        "label": "_operatorApprovals",
        "offset": 0,
        "slot": "5",
        "type": "t_mapping(t_address,t_mapping(t_address,t_bool))"
      },
      {
        "astId": 2352,
        "contract": "contracts/BullBear.sol:BullBear",
        "label": "_ownedTokens",
        "offset": 0,
        "slot": "6",
        "type": "t_mapping(t_address,t_mapping(t_uint256,t_uint256))"
      },
      {
        "astId": 2356,
        "contract": "contracts/BullBear.sol:BullBear",
        "label": "_ownedTokensIndex",
        "offset": 0,
        "slot": "7",
        "type": "t_mapping(t_uint256,t_uint256)"
      },
      {
        "astId": 2359,
        "contract": "contracts/BullBear.sol:BullBear",
        "label": "_allTokens",
        "offset": 0,
        "slot": "8",
        "type": "t_array(t_uint256)dyn_storage"
      },
      {
        "astId": 2363,
        "contract": "contracts/BullBear.sol:BullBear",
        "label": "_allTokensIndex",
        "offset": 0,
        "slot": "9",
        "type": "t_mapping(t_uint256,t_uint256)"
      },
      {
        "astId": 2688,
        "contract": "contracts/BullBear.sol:BullBear",
        "label": "_tokenURIs",
        "offset": 0,
        "slot": "10",
        "type": "t_mapping(t_uint256,t_string_storage)"
      },
      {
        "astId": 1231,
        "contract": "contracts/BullBear.sol:BullBear",
        "label": "_owner",
        "offset": 0,
        "slot": "11",
        "type": "t_address"
      },
      {
        "astId": 3559,
        "contract": "contracts/BullBear.sol:BullBear",
        "label": "_tokenIdCounter",
        "offset": 0,
        "slot": "12",
        "type": "t_struct(Counter)3181_storage"
      },
      {
        "astId": 3567,
        "contract": "contracts/BullBear.sol:BullBear",
        "label": "currentMarketTrend",
        "offset": 0,
        "slot": "13",
        "type": "t_enum(MarketTrend)3562"
      },
      {
        "astId": 3571,
        "contract": "contracts/BullBear.sol:BullBear",
        "label": "s_lastTimestamp",
        "offset": 0,
        "slot": "14",
        "type": "t_uint256"
      },
      {
        "astId": 3573,
        "contract": "contracts/BullBear.sol:BullBear",
        "label": "s_lastPrice",
        "offset": 0,
        "slot": "15",
        "type": "t_int256"
      },
      {
        "astId": 3598,
        "contract": "contracts/BullBear.sol:BullBear",
        "label": "bullUrisIpfs",
        "offset": 0,
        "slot": "16",
        "type": "t_array(t_string_storage)dyn_storage"
      },
      {
        "astId": 3605,
        "contract": "contracts/BullBear.sol:BullBear",
        "label": "bearUrisIpfs",
        "offset": 0,
        "slot": "17",
        "type": "t_array(t_string_storage)dyn_storage"
      }
    ],
    "types": {
      "t_address": {
        "encoding": "inplace",
        "label": "address",
        "numberOfBytes": "20"
      },
      "t_array(t_string_storage)dyn_storage": {
        "base": "t_string_storage",
        "encoding": "dynamic_array",
        "label": "string[]",
        "numberOfBytes": "32"
      },
      "t_array(t_uint256)dyn_storage": {
        "base": "t_uint256",
        "encoding": "dynamic_array",
        "label": "uint256[]",
        "numberOfBytes": "32"
      },
      "t_bool": {
        "encoding": "inplace",
        "label": "bool",
        "numberOfBytes": "1"
      },
      "t_enum(MarketTrend)3562": {
        "encoding": "inplace",
        "label": "enum BullBear.MarketTrend",
        "numberOfBytes": "1"
      },
      "t_int256": {
        "encoding": "inplace",
        "label": "int256",
        "numberOfBytes": "32"
      },
      "t_mapping(t_address,t_bool)": {
        "encoding": "mapping",
        "key": "t_address",
        "label": "mapping(address => bool)",
        "numberOfBytes": "32",
        "value": "t_bool"
      },
      "t_mapping(t_address,t_mapping(t_address,t_bool))": {
        "encoding": "mapping",
        "key": "t_address",
        "label": "mapping(address => mapping(address => bool))",
        "numberOfBytes": "32",
        "value": "t_mapping(t_address,t_bool)"
      },
      "t_mapping(t_address,t_mapping(t_uint256,t_uint256))": {
        "encoding": "mapping",
        "key": "t_address",
        "label": "mapping(address => mapping(uint256 => uint256))",
        "numberOfBytes": "32",
        "value": "t_mapping(t_uint256,t_uint256)"
      },
      "t_mapping(t_address,t_uint256)": {
        "encoding": "mapping",
        "key": "t_address",
        "label": "mapping(address => uint256)",
        "numberOfBytes": "32",
        "value": "t_uint256"
      },
      "t_mapping(t_uint256,t_address)": {
        "encoding": "mapping",
        "key": "t_uint256",
        "label": "mapping(uint256 => address)",
        "numberOfBytes": "32",
        "value": "t_address"
      },
      "t_mapping(t_uint256,t_string_storage)": {
        "encoding": "mapping",
        "key": "t_uint256",
        "label": "mapping(uint256 => string)",
        "numberOfBytes": "32",
        "value": "t_string_storage"
      },
      "t_mapping(t_uint256,t_uint256)": {
        "encoding": "mapping",
        "key": "t_uint256",
        "label": "mapping(uint256 => uint256)",
        "numberOfBytes": "32",
        "value": "t_uint256"
      },
      "t_string_storage": {
        "encoding": "bytes",
        "label": "string",
        "numberOfBytes": "32"
      },
      "t_struct(Counter)3181_storage": {
        "encoding": "inplace",
        "label": "struct Counters.Counter",
        "members": [
          {
            "astId": 3180,
            "contract": "contracts/BullBear.sol:BullBear",
            "label": "_value",
            "offset": 0,
            "slot": "0",
            "type": "t_uint256"
          }
        ],
        "numberOfBytes": "32"
      },
      "t_uint256": {
        "encoding": "inplace",
        "label": "uint256",
        "numberOfBytes": "32"
      }
    }
  }
}